:060000000A128A11142906
:10000800F000030EF1000B1912200C1825208C1893
:100018003220710E8300F00E700E09000313831254
:10002800FE3081000B11860123181E282408880041
:100038000614222825088800861422280130A306E1
:100048000800031383120B308F0047308E000C100A
:10005800A00A2008023C0319782108008C102218F5
:10006800362839282E1407143D282E100710AE0103
:080078003D280130A20608003A
:100200008A010A140F3982073F3406345B344F34B5
:1002100066346D347D3407347F346F3477347C3406
:1002200039345E34793471345A2127212E213B210F
:100230004B216B21031383122108812120211C29CA
:100240002A080021A40029080021A50008000313A2
:1002500083160F138F160F160F140800031383163F
:100260008112811101158114011403138312FE30D0
:1002700081000B1108000313831210139012101247
:10028000901190101014031383120B308F0047301D
:100290008E000C1008000313831212179216121608
:1002A000921512159214121403138316F63092004D
:1002B0008C10080003178316880189010313831625
:1002C0008501870186018801031383128501870157
:1002D000860188010800031383160C148C14031381
:1002E00083128B160B110C108C100B178B17080038
:1002F000A001A10A2108643C0319A101210885007D
:100300000800AB00AC01AC0A0A30AB020318832929
:100310002C03AC000A302B07AD002C08A9002D08D7
:04032000AA00080027
:04400E00D420FF3F7C
:00000001FF
